{
  "_format": "hh-sol-artifact-1",
  "contractName": "NFTMarket",
  "sourceName": "contracts/NFTMarketPlace.sol",
  "abi": [
    {
      "inputs": [],
      "stateMutability": "nonpayable",
      "type": "constructor"
    },
    {
      "anonymous": false,
      "inputs": [
        {
          "indexed": false,
          "internalType": "uint256",
          "name": "price",
          "type": "uint256"
        },
        {
          "indexed": true,
          "internalType": "uint256",
          "name": "itemId",
          "type": "uint256"
        },
        {
          "indexed": true,
          "internalType": "uint256",
          "name": "tokenId",
          "type": "uint256"
        },
        {
          "indexed": false,
          "internalType": "address",
          "name": "ownerAddress",
          "type": "address"
        },
        {
          "indexed": false,
          "internalType": "address",
          "name": "sellerAddress",
          "type": "address"
        },
        {
          "indexed": true,
          "internalType": "address",
          "name": "nftContractAddress",
          "type": "address"
        },
        {
          "indexed": false,
          "internalType": "bool",
          "name": "sold",
          "type": "bool"
        }
      ],
      "name": "WhenMarketItemCreated",
      "type": "event"
    },
    {
      "inputs": [
        {
          "internalType": "address",
          "name": "nftContractAddress",
          "type": "address"
        },
        {
          "internalType": "uint256",
          "name": "itemId",
          "type": "uint256"
        }
      ],
      "name": "MarketSale",
      "outputs": [],
      "stateMutability": "payable",
      "type": "function"
    },
    {
      "inputs": [
        {
          "internalType": "uint256",
          "name": "price",
          "type": "uint256"
        },
        {
          "internalType": "address",
          "name": "nftContractAddress",
          "type": "address"
        },
        {
          "internalType": "uint256",
          "name": "tokenId",
          "type": "uint256"
        }
      ],
      "name": "createMarketItem",
      "outputs": [],
      "stateMutability": "payable",
      "type": "function"
    },
    {
      "inputs": [],
      "name": "fetchMarketItems",
      "outputs": [
        {
          "components": [
            {
              "internalType": "uint256",
              "name": "price",
              "type": "uint256"
            },
            {
              "internalType": "uint256",
              "name": "itemId",
              "type": "uint256"
            },
            {
              "internalType": "uint256",
              "name": "tokenId",
              "type": "uint256"
            },
            {
              "internalType": "address payable",
              "name": "ownerAddress",
              "type": "address"
            },
            {
              "internalType": "address payable",
              "name": "sellerAddress",
              "type": "address"
            },
            {
              "internalType": "address",
              "name": "nftContractAddress",
              "type": "address"
            },
            {
              "internalType": "bool",
              "name": "sold",
              "type": "bool"
            }
          ],
          "internalType": "struct NFTMarket.MarketItem[]",
          "name": "",
          "type": "tuple[]"
        }
      ],
      "stateMutability": "view",
      "type": "function"
    },
    {
      "inputs": [],
      "name": "getListingPrice",
      "outputs": [
        {
          "internalType": "uint256",
          "name": "",
          "type": "uint256"
        }
      ],
      "stateMutability": "view",
      "type": "function"
    },
    {
      "inputs": [],
      "name": "getMyNft",
      "outputs": [
        {
          "components": [
            {
              "internalType": "uint256",
              "name": "price",
              "type": "uint256"
            },
            {
              "internalType": "uint256",
              "name": "itemId",
              "type": "uint256"
            },
            {
              "internalType": "uint256",
              "name": "tokenId",
              "type": "uint256"
            },
            {
              "internalType": "address payable",
              "name": "ownerAddress",
              "type": "address"
            },
            {
              "internalType": "address payable",
              "name": "sellerAddress",
              "type": "address"
            },
            {
              "internalType": "address",
              "name": "nftContractAddress",
              "type": "address"
            },
            {
              "internalType": "bool",
              "name": "sold",
              "type": "bool"
            }
          ],
          "internalType": "struct NFTMarket.MarketItem[]",
          "name": "",
          "type": "tuple[]"
        }
      ],
      "stateMutability": "view",
      "type": "function"
    },
    {
      "inputs": [],
      "name": "getUserCreatedNft",
      "outputs": [
        {
          "components": [
            {
              "internalType": "uint256",
              "name": "price",
              "type": "uint256"
            },
            {
              "internalType": "uint256",
              "name": "itemId",
              "type": "uint256"
            },
            {
              "internalType": "uint256",
              "name": "tokenId",
              "type": "uint256"
            },
            {
              "internalType": "address payable",
              "name": "ownerAddress",
              "type": "address"
            },
            {
              "internalType": "address payable",
              "name": "sellerAddress",
              "type": "address"
            },
            {
              "internalType": "address",
              "name": "nftContractAddress",
              "type": "address"
            },
            {
              "internalType": "bool",
              "name": "sold",
              "type": "bool"
            }
          ],
          "internalType": "struct NFTMarket.MarketItem[]",
          "name": "",
          "type": "tuple[]"
        }
      ],
      "stateMutability": "view",
      "type": "function"
    }
  ],
  "bytecode": "0x60806040526658d15e1762800060045534801561001b57600080fd5b50600160008190555033600360006101000a81548173ffffffffffffffffffffffffffffffffffffffff021916908373ffffffffffffffffffffffffffffffffffffffff16021790555061199a806100746000396000f3fe6080604052600436106100555760003560e01c80630f08efe01461005a57806312e85585146100855780635fec2222146100b05780636f2e30c0146100cc57806382995067146100f7578063a08376bb14610113575b600080fd5b34801561006657600080fd5b5061006f61013e565b60405161007c9190611578565b60405180910390f35b34801561009157600080fd5b5061009a61046a565b6040516100a7919061161a565b60405180910390f35b6100ca60048036038101906100c591906112bd565b610474565b005b3480156100d857600080fd5b506100e161072d565b6040516100ee9190611578565b60405180910390f35b610111600480360381019061010c91906112f9565b610adc565b005b34801561011f57600080fd5b50610128610e40565b6040516101359190611578565b60405180910390f35b6060600061014c60016111ee565b9050600061015a60026111ee565b61016460016111ee565b61016e919061171a565b90506000808267ffffffffffffffff8111156101b3577f4e487b7100000000000000000000000000000000000000000000000000000000600052604160045260246000fd5b6040519080825280602002602001820160405280156101ec57816020015b6101d9611212565b8152602001906001900390816101d15790505b50905060005b8481101561045f57600073ffffffffffffffffffffffffffffffffffffffff166005600060018461022391906116c4565b815260200190815260200160002060030160009054906101000a900473ffffffffffffffffffffffffffffffffffffffff1673ffffffffffffffffffffffffffffffffffffffff16141561044c5760006005600060018461028491906116c4565b81526020019081526020016000206001015490506000600560008381526020019081526020016000209050806040518060e00160405290816000820154815260200160018201548152602001600282015481526020016003820160009054906101000a900473ffffffffffffffffffffffffffffffffffffffff1673ffffffffffffffffffffffffffffffffffffffff1673ffffffffffffffffffffffffffffffffffffffff1681526020016004820160009054906101000a900473ffffffffffffffffffffffffffffffffffffffff1673ffffffffffffffffffffffffffffffffffffffff1673ffffffffffffffffffffffffffffffffffffffff1681526020016005820160009054906101000a900473ffffffffffffffffffffffffffffffffffffffff1673ffffffffffffffffffffffffffffffffffffffff1673ffffffffffffffffffffffffffffffffffffffff1681526020016005820160149054906101000a900460ff16151515158152505084868151811061042f577f4e487b7100000000000000000000000000000000000000000000000000000000600052603260045260246000fd5b602002602001018190525060018561044791906116c4565b945050505b8080610457906117a8565b9150506101f2565b508094505050505090565b6000600454905090565b600260005414156104ba576040517f08c379a00000000000000000000000000000000000000000000000000000000081526004016104b1906115fa565b60405180910390fd5b600260008190555060006005600083815260200190815260200160002060000154905060006005600084815260200190815260200160002060020154905081341461053a576040517f08c379a0000000000000000000000000000000000000000000000000000000008152600401610531906115da565b60405180910390fd5b6005600084815260200190815260200160002060040160009054906101000a900473ffffffffffffffffffffffffffffffffffffffff1673ffffffffffffffffffffffffffffffffffffffff166108fc349081150290604051600060405180830381858888f193505050501580156105b6573d6000803e3d6000fd5b508373ffffffffffffffffffffffffffffffffffffffff166323b872dd3033846040518463ffffffff1660e01b81526004016105f493929190611541565b600060405180830381600087803b15801561060e57600080fd5b505af1158015610622573d6000803e3d6000fd5b50505050336005600085815260200190815260200160002060030160006101000a81548173ffffffffffffffffffffffffffffffffffffffff021916908373ffffffffffffffffffffffffffffffffffffffff16021790555060016005600085815260200190815260200160002060050160146101000a81548160ff0219169083151502179055506106b460026111fc565b600360009054906101000a900473ffffffffffffffffffffffffffffffffffffffff1673ffffffffffffffffffffffffffffffffffffffff166108fc6004549081150290604051600060405180830381858888f1935050505015801561071e573d6000803e3d6000fd5b50505060016000819055505050565b6060600061073b60016111ee565b905060008060005b838110156107e4573373ffffffffffffffffffffffffffffffffffffffff166005600060018461077391906116c4565b815260200190815260200160002060030160009054906101000a900473ffffffffffffffffffffffffffffffffffffffff1673ffffffffffffffffffffffffffffffffffffffff1614156107d1576001836107ce91906116c4565b92505b80806107dc906117a8565b915050610743565b5060008267ffffffffffffffff811115610827577f4e487b7100000000000000000000000000000000000000000000000000000000600052604160045260246000fd5b60405190808252806020026020018201604052801561086057816020015b61084d611212565b8152602001906001900390816108455790505b50905060005b84811015610ad1573373ffffffffffffffffffffffffffffffffffffffff166005600060018461089691906116c4565b815260200190815260200160002060030160009054906101000a900473ffffffffffffffffffffffffffffffffffffffff1673ffffffffffffffffffffffffffffffffffffffff161415610abe576000600560006001846108f791906116c4565b81526020019081526020016000206001015490506000600560008381526020019081526020016000209050806040518060e00160405290816000820154815260200160018201548152602001600282015481526020016003820160009054906101000a900473ffffffffffffffffffffffffffffffffffffffff1673ffffffffffffffffffffffffffffffffffffffff1673ffffffffffffffffffffffffffffffffffffffff1681526020016004820160009054906101000a900473ffffffffffffffffffffffffffffffffffffffff1673ffffffffffffffffffffffffffffffffffffffff1673ffffffffffffffffffffffffffffffffffffffff1681526020016005820160009054906101000a900473ffffffffffffffffffffffffffffffffffffffff1673ffffffffffffffffffffffffffffffffffffffff1673ffffffffffffffffffffffffffffffffffffffff1681526020016005820160149054906101000a900460ff161515151581525050848681518110610aa2577f4e487b7100000000000000000000000000000000000000000000000000000000600052603260045260246000fd5b60200260200101819052508480610ab8906117a8565b95505050505b8080610ac9906117a8565b915050610866565b508094505050505090565b60026000541415610b22576040517f08c379a0000000000000000000000000000000000000000000000000000000008152600401610b19906115fa565b60405180910390fd5b600260008190555060008311610b6d576040517f08c379a0000000000000000000000000000000000000000000000000000000008152600401610b64906115ba565b60405180910390fd5b6004543414610bb1576040517f08c379a0000000000000000000000000000000000000000000000000000000008152600401610ba89061159a565b60405180910390fd5b610bbb60016111fc565b6000610bc760016111ee565b90506040518060e00160405280858152602001828152602001838152602001600073ffffffffffffffffffffffffffffffffffffffff1681526020013373ffffffffffffffffffffffffffffffffffffffff1681526020018473ffffffffffffffffffffffffffffffffffffffff168152602001600015158152506005600083815260200190815260200160002060008201518160000155602082015181600101556040820151816002015560608201518160030160006101000a81548173ffffffffffffffffffffffffffffffffffffffff021916908373ffffffffffffffffffffffffffffffffffffffff16021790555060808201518160040160006101000a81548173ffffffffffffffffffffffffffffffffffffffff021916908373ffffffffffffffffffffffffffffffffffffffff16021790555060a08201518160050160006101000a81548173ffffffffffffffffffffffffffffffffffffffff021916908373ffffffffffffffffffffffffffffffffffffffff16021790555060c08201518160050160146101000a81548160ff0219169083151502179055509050508273ffffffffffffffffffffffffffffffffffffffff166323b872dd3330856040518463ffffffff1660e01b8152600401610da893929190611541565b600060405180830381600087803b158015610dc257600080fd5b505af1158015610dd6573d6000803e3d6000fd5b505050508273ffffffffffffffffffffffffffffffffffffffff1682827f842971e622f23e829a6d8704448224305d3fecb171886532e3d7769a05e952a9876000336000604051610e2a9493929190611635565b60405180910390a4506001600081905550505050565b60606000610e4e60016111ee565b905060008060005b83811015610ef6573373ffffffffffffffffffffffffffffffffffffffff1660056000600184610e8691906116c4565b815260200190815260200160002060040160009054906101000a900473ffffffffffffffffffffffffffffffffffffffff1673ffffffffffffffffffffffffffffffffffffffff161415610ee3578280610edf906117a8565b9350505b8080610eee906117a8565b915050610e56565b5060008267ffffffffffffffff811115610f39577f4e487b7100000000000000000000000000000000000000000000000000000000600052604160045260246000fd5b604051908082528060200260200182016040528015610f7257816020015b610f5f611212565b815260200190600190039081610f575790505b50905060005b848110156111e3573373ffffffffffffffffffffffffffffffffffffffff1660056000600184610fa891906116c4565b815260200190815260200160002060040160009054906101000a900473ffffffffffffffffffffffffffffffffffffffff1673ffffffffffffffffffffffffffffffffffffffff1614156111d05760006005600060018461100991906116c4565b81526020019081526020016000206001015490506000600560008381526020019081526020016000209050806040518060e00160405290816000820154815260200160018201548152602001600282015481526020016003820160009054906101000a900473ffffffffffffffffffffffffffffffffffffffff1673ffffffffffffffffffffffffffffffffffffffff1673ffffffffffffffffffffffffffffffffffffffff1681526020016004820160009054906101000a900473ffffffffffffffffffffffffffffffffffffffff1673ffffffffffffffffffffffffffffffffffffffff1673ffffffffffffffffffffffffffffffffffffffff1681526020016005820160009054906101000a900473ffffffffffffffffffffffffffffffffffffffff1673ffffffffffffffffffffffffffffffffffffffff1673ffffffffffffffffffffffffffffffffffffffff1681526020016005820160149054906101000a900460ff1615151515815250508486815181106111b4577f4e487b7100000000000000000000000000000000000000000000000000000000600052603260045260246000fd5b602002602001018190525084806111ca906117a8565b95505050505b80806111db906117a8565b915050610f78565b508094505050505090565b600081600001549050919050565b6001816000016000828254019250508190555050565b6040518060e00160405280600081526020016000815260200160008152602001600073ffffffffffffffffffffffffffffffffffffffff168152602001600073ffffffffffffffffffffffffffffffffffffffff168152602001600073ffffffffffffffffffffffffffffffffffffffff1681526020016000151581525090565b6000813590506112a281611936565b92915050565b6000813590506112b78161194d565b92915050565b600080604083850312156112d057600080fd5b60006112de85828601611293565b92505060206112ef858286016112a8565b9150509250929050565b60008060006060848603121561130e57600080fd5b600061131c868287016112a8565b935050602061132d86828701611293565b925050604061133e868287016112a8565b9150509250925092565b60006113548383611495565b60e08301905092915050565b61136981611760565b82525050565b6113788161174e565b82525050565b6113878161174e565b82525050565b60006113988261168a565b6113a281856116a2565b93506113ad8361167a565b8060005b838110156113de5781516113c58882611348565b97506113d083611695565b9250506001810190506113b1565b5085935050505092915050565b6113f481611772565b82525050565b61140381611772565b82525050565b6000611416602c836116b3565b915061142182611820565b604082019050919050565b60006114396024836116b3565b91506114448261186f565b604082019050919050565b600061145c6039836116b3565b9150611467826118be565b604082019050919050565b600061147f601f836116b3565b915061148a8261190d565b602082019050919050565b60e0820160008201516114ab6000850182611523565b5060208201516114be6020850182611523565b5060408201516114d16040850182611523565b5060608201516114e46060850182611360565b5060808201516114f76080850182611360565b5060a082015161150a60a085018261136f565b5060c082015161151d60c08501826113eb565b50505050565b61152c8161179e565b82525050565b61153b8161179e565b82525050565b6000606082019050611556600083018661137e565b611563602083018561137e565b6115706040830184611532565b949350505050565b60006020820190508181036000830152611592818461138d565b905092915050565b600060208201905081810360008301526115b381611409565b9050919050565b600060208201905081810360008301526115d38161142c565b9050919050565b600060208201905081810360008301526115f38161144f565b9050919050565b6000602082019050818103600083015261161381611472565b9050919050565b600060208201905061162f6000830184611532565b92915050565b600060808201905061164a6000830187611532565b611657602083018661137e565b611664604083018561137e565b61167160608301846113fa565b95945050505050565b6000819050602082019050919050565b600081519050919050565b6000602082019050919050565b600082825260208201905092915050565b600082825260208201905092915050565b60006116cf8261179e565b91506116da8361179e565b9250827fffffffffffffffffffffffffffffffffffffffffffffffffffffffffffffffff0382111561170f5761170e6117f1565b5b828201905092915050565b60006117258261179e565b91506117308361179e565b925082821015611743576117426117f1565b5b828203905092915050565b60006117598261177e565b9050919050565b600061176b8261177e565b9050919050565b60008115159050919050565b600073ffffffffffffffffffffffffffffffffffffffff82169050919050565b6000819050919050565b60006117b38261179e565b91507fffffffffffffffffffffffffffffffffffffffffffffffffffffffffffffffff8214156117e6576117e56117f1565b5b600182019050919050565b7f4e487b7100000000000000000000000000000000000000000000000000000000600052601160045260246000fd5b7f5468652076616c7565206d75737420626520657175616c20746f20746865206c60008201527f697374696e672050726963650000000000000000000000000000000000000000602082015250565b7f596f7572207072696365206d7573742062652067726561746572207468616e2060008201527f5a65726f00000000000000000000000000000000000000000000000000000000602082015250565b7f416d6f756e74206d75737420626520657175616c20746f2074686520616d6f7560008201527f6e74206f6620746865204e465420746f20707572636861736500000000000000602082015250565b7f5265656e7472616e637947756172643a207265656e7472616e742063616c6c00600082015250565b61193f8161174e565b811461194a57600080fd5b50565b6119568161179e565b811461196157600080fd5b5056fea2646970667358221220a9d835e202b46a98e697f89d54307652f5d1fdb6da451129ff897f57d9d4992064736f6c63430008040033",
  "linkReferences": {},
  "deployedLinkReferences": {}
}